{
  "address": "0x80e206Cd4E3bD53D6f4a0ce4320F836E3C550d09",
  "abi": [
    {
      "inputs": [
        {
          "internalType": "string",
          "name": "baseURI",
          "type": "string"
        },
        {
          "internalType": "string",
          "name": "_name",
          "type": "string"
        },
        {
          "internalType": "string",
          "name": "_symbol",
          "type": "string"
        },
        {
          "internalType": "uint256",
          "name": "_minGasToTransfer",
          "type": "uint256"
        },
        {
          "internalType": "address",
          "name": "_lzEndpoint",
          "type": "address"
        }
      ],
      "stateMutability": "nonpayable",
      "type": "constructor"
    },
    {
      "inputs": [],
      "name": "ReachedMaxTreasurySupply",
      "type": "error"
    },
    {
      "anonymous": false,
      "inputs": [
        {
          "indexed": true,
          "internalType": "address",
          "name": "owner",
          "type": "address"
        },
        {
          "indexed": true,
          "internalType": "address",
          "name": "approved",
          "type": "address"
        },
        {
          "indexed": true,
          "internalType": "uint256",
          "name": "tokenId",
          "type": "uint256"
        }
      ],
      "name": "Approval",
      "type": "event"
    },
    {
      "anonymous": false,
      "inputs": [
        {
          "indexed": true,
          "internalType": "address",
          "name": "owner",
          "type": "address"
        },
        {
          "indexed": true,
          "internalType": "address",
          "name": "operator",
          "type": "address"
        },
        {
          "indexed": false,
          "internalType": "bool",
          "name": "approved",
          "type": "bool"
        }
      ],
      "name": "ApprovalForAll",
      "type": "event"
    },
    {
      "anonymous": false,
      "inputs": [
        {
          "indexed": false,
          "internalType": "bytes32",
          "name": "_hashedPayload",
          "type": "bytes32"
        }
      ],
      "name": "CreditCleared",
      "type": "event"
    },
    {
      "anonymous": false,
      "inputs": [
        {
          "indexed": false,
          "internalType": "bytes32",
          "name": "_hashedPayload",
          "type": "bytes32"
        },
        {
          "indexed": false,
          "internalType": "bytes",
          "name": "_payload",
          "type": "bytes"
        }
      ],
      "name": "CreditStored",
      "type": "event"
    },
    {
      "anonymous": false,
      "inputs": [
        {
          "indexed": false,
          "internalType": "uint16",
          "name": "_srcChainId",
          "type": "uint16"
        },
        {
          "indexed": false,
          "internalType": "bytes",
          "name": "_srcAddress",
          "type": "bytes"
        },
        {
          "indexed": false,
          "internalType": "uint64",
          "name": "_nonce",
          "type": "uint64"
        },
        {
          "indexed": false,
          "internalType": "bytes",
          "name": "_payload",
          "type": "bytes"
        },
        {
          "indexed": false,
          "internalType": "bytes",
          "name": "_reason",
          "type": "bytes"
        }
      ],
      "name": "MessageFailed",
      "type": "event"
    },
    {
      "anonymous": false,
      "inputs": [
        {
          "indexed": false,
          "internalType": "bool",
          "name": "state",
          "type": "bool"
        }
      ],
      "name": "MintStateChanged",
      "type": "event"
    },
    {
      "anonymous": false,
      "inputs": [
        {
          "indexed": true,
          "internalType": "address",
          "name": "previousOwner",
          "type": "address"
        },
        {
          "indexed": true,
          "internalType": "address",
          "name": "newOwner",
          "type": "address"
        }
      ],
      "name": "OwnershipTransferred",
      "type": "event"
    },
    {
      "anonymous": false,
      "inputs": [
        {
          "indexed": true,
          "internalType": "uint16",
          "name": "_srcChainId",
          "type": "uint16"
        },
        {
          "indexed": true,
          "internalType": "bytes",
          "name": "_srcAddress",
          "type": "bytes"
        },
        {
          "indexed": true,
          "internalType": "address",
          "name": "_toAddress",
          "type": "address"
        },
        {
          "indexed": false,
          "internalType": "uint256[]",
          "name": "_tokenIds",
          "type": "uint256[]"
        }
      ],
      "name": "ReceiveFromChain",
      "type": "event"
    },
    {
      "anonymous": false,
      "inputs": [
        {
          "indexed": false,
          "internalType": "uint16",
          "name": "_srcChainId",
          "type": "uint16"
        },
        {
          "indexed": false,
          "internalType": "bytes",
          "name": "_srcAddress",
          "type": "bytes"
        },
        {
          "indexed": false,
          "internalType": "uint64",
          "name": "_nonce",
          "type": "uint64"
        },
        {
          "indexed": false,
          "internalType": "bytes32",
          "name": "_payloadHash",
          "type": "bytes32"
        }
      ],
      "name": "RetryMessageSuccess",
      "type": "event"
    },
    {
      "anonymous": false,
      "inputs": [
        {
          "indexed": true,
          "internalType": "uint16",
          "name": "_dstChainId",
          "type": "uint16"
        },
        {
          "indexed": true,
          "internalType": "address",
          "name": "_from",
          "type": "address"
        },
        {
          "indexed": true,
          "internalType": "bytes",
          "name": "_toAddress",
          "type": "bytes"
        },
        {
          "indexed": false,
          "internalType": "uint256[]",
          "name": "_tokenIds",
          "type": "uint256[]"
        }
      ],
      "name": "SendToChain",
      "type": "event"
    },
    {
      "anonymous": false,
      "inputs": [
        {
          "indexed": false,
          "internalType": "uint16",
          "name": "_dstChainId",
          "type": "uint16"
        },
        {
          "indexed": false,
          "internalType": "uint256",
          "name": "_dstChainIdToBatchLimit",
          "type": "uint256"
        }
      ],
      "name": "SetDstChainIdToBatchLimit",
      "type": "event"
    },
    {
      "anonymous": false,
      "inputs": [
        {
          "indexed": false,
          "internalType": "uint16",
          "name": "_dstChainId",
          "type": "uint16"
        },
        {
          "indexed": false,
          "internalType": "uint256",
          "name": "_dstChainIdToTransferGas",
          "type": "uint256"
        }
      ],
      "name": "SetDstChainIdToTransferGas",
      "type": "event"
    },
    {
      "anonymous": false,
      "inputs": [
        {
          "indexed": false,
          "internalType": "uint16",
          "name": "_dstChainId",
          "type": "uint16"
        },
        {
          "indexed": false,
          "internalType": "uint16",
          "name": "_type",
          "type": "uint16"
        },
        {
          "indexed": false,
          "internalType": "uint256",
          "name": "_minDstGas",
          "type": "uint256"
        }
      ],
      "name": "SetMinDstGas",
      "type": "event"
    },
    {
      "anonymous": false,
      "inputs": [
        {
          "indexed": false,
          "internalType": "uint256",
          "name": "_minGasToTransferAndStore",
          "type": "uint256"
        }
      ],
      "name": "SetMinGasToTransferAndStore",
      "type": "event"
    },
    {
      "anonymous": false,
      "inputs": [
        {
          "indexed": false,
          "internalType": "address",
          "name": "precrime",
          "type": "address"
        }
      ],
      "name": "SetPrecrime",
      "type": "event"
    },
    {
      "anonymous": false,
      "inputs": [
        {
          "indexed": false,
          "internalType": "uint16",
          "name": "_remoteChainId",
          "type": "uint16"
        },
        {
          "indexed": false,
          "internalType": "bytes",
          "name": "_path",
          "type": "bytes"
        }
      ],
      "name": "SetTrustedRemote",
      "type": "event"
    },
    {
      "anonymous": false,
      "inputs": [
        {
          "indexed": false,
          "internalType": "uint16",
          "name": "_remoteChainId",
          "type": "uint16"
        },
        {
          "indexed": false,
          "internalType": "bytes",
          "name": "_remoteAddress",
          "type": "bytes"
        }
      ],
      "name": "SetTrustedRemoteAddress",
      "type": "event"
    },
    {
      "anonymous": false,
      "inputs": [
        {
          "indexed": true,
          "internalType": "address",
          "name": "from",
          "type": "address"
        },
        {
          "indexed": true,
          "internalType": "address",
          "name": "to",
          "type": "address"
        },
        {
          "indexed": true,
          "internalType": "uint256",
          "name": "tokenId",
          "type": "uint256"
        }
      ],
      "name": "Transfer",
      "type": "event"
    },
    {
      "anonymous": false,
      "inputs": [
        {
          "indexed": true,
          "internalType": "address",
          "name": "recipient",
          "type": "address"
        },
        {
          "indexed": false,
          "internalType": "uint256",
          "name": "quantity",
          "type": "uint256"
        },
        {
          "indexed": false,
          "internalType": "uint256",
          "name": "fromIndex",
          "type": "uint256"
        }
      ],
      "name": "TreasuryMint",
      "type": "event"
    },
    {
      "inputs": [],
      "name": "DEFAULT_PAYLOAD_SIZE_LIMIT",
      "outputs": [
        {
          "internalType": "uint256",
          "name": "",
          "type": "uint256"
        }
      ],
      "stateMutability": "view",
      "type": "function"
    },
    {
      "inputs": [],
      "name": "FUNCTION_TYPE_SEND",
      "outputs": [
        {
          "internalType": "uint16",
          "name": "",
          "type": "uint16"
        }
      ],
      "stateMutability": "view",
      "type": "function"
    },
    {
      "inputs": [],
      "name": "MAX_ELEMENTS",
      "outputs": [
        {
          "internalType": "uint256",
          "name": "",
          "type": "uint256"
        }
      ],
      "stateMutability": "view",
      "type": "function"
    },
    {
      "inputs": [
        {
          "internalType": "address",
          "name": "minterAddress",
          "type": "address"
        }
      ],
      "name": "addToWhiteList",
      "outputs": [],
      "stateMutability": "nonpayable",
      "type": "function"
    },
    {
      "inputs": [
        {
          "internalType": "address",
          "name": "to",
          "type": "address"
        },
        {
          "internalType": "uint256",
          "name": "tokenId",
          "type": "uint256"
        }
      ],
      "name": "approve",
      "outputs": [],
      "stateMutability": "nonpayable",
      "type": "function"
    },
    {
      "inputs": [
        {
          "internalType": "address",
          "name": "owner",
          "type": "address"
        }
      ],
      "name": "balanceOf",
      "outputs": [
        {
          "internalType": "uint256",
          "name": "",
          "type": "uint256"
        }
      ],
      "stateMutability": "view",
      "type": "function"
    },
    {
      "inputs": [],
      "name": "baseTokenURI",
      "outputs": [
        {
          "internalType": "string",
          "name": "",
          "type": "string"
        }
      ],
      "stateMutability": "view",
      "type": "function"
    },
    {
      "inputs": [
        {
          "internalType": "uint256",
          "name": "tokenId",
          "type": "uint256"
        }
      ],
      "name": "burn",
      "outputs": [],
      "stateMutability": "nonpayable",
      "type": "function"
    },
    {
      "inputs": [
        {
          "internalType": "bytes",
          "name": "_payload",
          "type": "bytes"
        }
      ],
      "name": "clearCredits",
      "outputs": [],
      "stateMutability": "nonpayable",
      "type": "function"
    },
    {
      "inputs": [
        {
          "internalType": "uint16",
          "name": "",
          "type": "uint16"
        }
      ],
      "name": "dstChainIdToBatchLimit",
      "outputs": [
        {
          "internalType": "uint256",
          "name": "",
          "type": "uint256"
        }
      ],
      "stateMutability": "view",
      "type": "function"
    },
    {
      "inputs": [
        {
          "internalType": "uint16",
          "name": "",
          "type": "uint16"
        }
      ],
      "name": "dstChainIdToTransferGas",
      "outputs": [
        {
          "internalType": "uint256",
          "name": "",
          "type": "uint256"
        }
      ],
      "stateMutability": "view",
      "type": "function"
    },
    {
      "inputs": [
        {
          "internalType": "bool",
          "name": "_whiteListingPeriod",
          "type": "bool"
        }
      ],
      "name": "enableWhiteListing",
      "outputs": [],
      "stateMutability": "nonpayable",
      "type": "function"
    },
    {
      "inputs": [
        {
          "internalType": "uint16",
          "name": "_dstChainId",
          "type": "uint16"
        },
        {
          "internalType": "bytes",
          "name": "_toAddress",
          "type": "bytes"
        },
        {
          "internalType": "uint256[]",
          "name": "_tokenIds",
          "type": "uint256[]"
        },
        {
          "internalType": "bool",
          "name": "_useZro",
          "type": "bool"
        },
        {
          "internalType": "bytes",
          "name": "_adapterParams",
          "type": "bytes"
        }
      ],
      "name": "estimateSendBatchFee",
      "outputs": [
        {
          "internalType": "uint256",
          "name": "nativeFee",
          "type": "uint256"
        },
        {
          "internalType": "uint256",
          "name": "zroFee",
          "type": "uint256"
        }
      ],
      "stateMutability": "view",
      "type": "function"
    },
    {
      "inputs": [
        {
          "internalType": "uint16",
          "name": "_dstChainId",
          "type": "uint16"
        },
        {
          "internalType": "bytes",
          "name": "_toAddress",
          "type": "bytes"
        },
        {
          "internalType": "uint256",
          "name": "_tokenId",
          "type": "uint256"
        },
        {
          "internalType": "bool",
          "name": "_useZro",
          "type": "bool"
        },
        {
          "internalType": "bytes",
          "name": "_adapterParams",
          "type": "bytes"
        }
      ],
      "name": "estimateSendFee",
      "outputs": [
        {
          "internalType": "uint256",
          "name": "nativeFee",
          "type": "uint256"
        },
        {
          "internalType": "uint256",
          "name": "zroFee",
          "type": "uint256"
        }
      ],
      "stateMutability": "view",
      "type": "function"
    },
    {
      "inputs": [
        {
          "internalType": "uint16",
          "name": "",
          "type": "uint16"
        },
        {
          "internalType": "bytes",
          "name": "",
          "type": "bytes"
        },
        {
          "internalType": "uint64",
          "name": "",
          "type": "uint64"
        }
      ],
      "name": "failedMessages",
      "outputs": [
        {
          "internalType": "bytes32",
          "name": "",
          "type": "bytes32"
        }
      ],
      "stateMutability": "view",
      "type": "function"
    },
    {
      "inputs": [
        {
          "internalType": "uint16",
          "name": "_srcChainId",
          "type": "uint16"
        },
        {
          "internalType": "bytes",
          "name": "_srcAddress",
          "type": "bytes"
        }
      ],
      "name": "forceResumeReceive",
      "outputs": [],
      "stateMutability": "nonpayable",
      "type": "function"
    },
    {
      "inputs": [
        {
          "internalType": "uint256",
          "name": "tokenId",
          "type": "uint256"
        }
      ],
      "name": "getApproved",
      "outputs": [
        {
          "internalType": "address",
          "name": "",
          "type": "address"
        }
      ],
      "stateMutability": "view",
      "type": "function"
    },
    {
      "inputs": [
        {
          "internalType": "uint16",
          "name": "_version",
          "type": "uint16"
        },
        {
          "internalType": "uint16",
          "name": "_chainId",
          "type": "uint16"
        },
        {
          "internalType": "address",
          "name": "",
          "type": "address"
        },
        {
          "internalType": "uint256",
          "name": "_configType",
          "type": "uint256"
        }
      ],
      "name": "getConfig",
      "outputs": [
        {
          "internalType": "bytes",
          "name": "",
          "type": "bytes"
        }
      ],
      "stateMutability": "view",
      "type": "function"
    },
    {
      "inputs": [
        {
          "internalType": "uint16",
          "name": "_remoteChainId",
          "type": "uint16"
        }
      ],
      "name": "getTrustedRemoteAddress",
      "outputs": [
        {
          "internalType": "bytes",
          "name": "",
          "type": "bytes"
        }
      ],
      "stateMutability": "view",
      "type": "function"
    },
    {
      "inputs": [
        {
          "internalType": "address",
          "name": "owner",
          "type": "address"
        },
        {
          "internalType": "address",
          "name": "operator",
          "type": "address"
        }
      ],
      "name": "isApprovedForAll",
      "outputs": [
        {
          "internalType": "bool",
          "name": "",
          "type": "bool"
        }
      ],
      "stateMutability": "view",
      "type": "function"
    },
    {
      "inputs": [
        {
          "internalType": "uint16",
          "name": "_srcChainId",
          "type": "uint16"
        },
        {
          "internalType": "bytes",
          "name": "_srcAddress",
          "type": "bytes"
        }
      ],
      "name": "isTrustedRemote",
      "outputs": [
        {
          "internalType": "bool",
          "name": "",
          "type": "bool"
        }
      ],
      "stateMutability": "view",
      "type": "function"
    },
    {
      "inputs": [],
      "name": "lzEndpoint",
      "outputs": [
        {
          "internalType": "contract ILayerZeroEndpoint",
          "name": "",
          "type": "address"
        }
      ],
      "stateMutability": "view",
      "type": "function"
    },
    {
      "inputs": [
        {
          "internalType": "uint16",
          "name": "_srcChainId",
          "type": "uint16"
        },
        {
          "internalType": "bytes",
          "name": "_srcAddress",
          "type": "bytes"
        },
        {
          "internalType": "uint64",
          "name": "_nonce",
          "type": "uint64"
        },
        {
          "internalType": "bytes",
          "name": "_payload",
          "type": "bytes"
        }
      ],
      "name": "lzReceive",
      "outputs": [],
      "stateMutability": "nonpayable",
      "type": "function"
    },
    {
      "inputs": [
        {
          "internalType": "uint16",
          "name": "",
          "type": "uint16"
        },
        {
          "internalType": "uint16",
          "name": "",
          "type": "uint16"
        }
      ],
      "name": "minDstGasLookup",
      "outputs": [
        {
          "internalType": "uint256",
          "name": "",
          "type": "uint256"
        }
      ],
      "stateMutability": "view",
      "type": "function"
    },
    {
      "inputs": [],
      "name": "minGasToTransferAndStore",
      "outputs": [
        {
          "internalType": "uint256",
          "name": "",
          "type": "uint256"
        }
      ],
      "stateMutability": "view",
      "type": "function"
    },
    {
      "inputs": [
        {
          "internalType": "address",
          "name": "_addr",
          "type": "address"
        },
        {
          "internalType": "uint256",
          "name": "id",
          "type": "uint256"
        }
      ],
      "name": "mint",
      "outputs": [],
      "stateMutability": "payable",
      "type": "function"
    },
    {
      "inputs": [],
      "name": "mintLimit",
      "outputs": [
        {
          "internalType": "uint256",
          "name": "",
          "type": "uint256"
        }
      ],
      "stateMutability": "view",
      "type": "function"
    },
    {
      "inputs": [],
      "name": "mintState",
      "outputs": [
        {
          "internalType": "bool",
          "name": "",
          "type": "bool"
        }
      ],
      "stateMutability": "view",
      "type": "function"
    },
    {
      "inputs": [
        {
          "internalType": "address",
          "name": "",
          "type": "address"
        }
      ],
      "name": "minters",
      "outputs": [
        {
          "internalType": "bool",
          "name": "",
          "type": "bool"
        }
      ],
      "stateMutability": "view",
      "type": "function"
    },
    {
      "inputs": [],
      "name": "name",
      "outputs": [
        {
          "internalType": "string",
          "name": "",
          "type": "string"
        }
      ],
      "stateMutability": "view",
      "type": "function"
    },
    {
      "inputs": [
        {
          "internalType": "uint16",
          "name": "_srcChainId",
          "type": "uint16"
        },
        {
          "internalType": "bytes",
          "name": "_srcAddress",
          "type": "bytes"
        },
        {
          "internalType": "uint64",
          "name": "_nonce",
          "type": "uint64"
        },
        {
          "internalType": "bytes",
          "name": "_payload",
          "type": "bytes"
        }
      ],
      "name": "nonblockingLzReceive",
      "outputs": [],
      "stateMutability": "nonpayable",
      "type": "function"
    },
    {
      "inputs": [],
      "name": "owner",
      "outputs": [
        {
          "internalType": "address",
          "name": "",
          "type": "address"
        }
      ],
      "stateMutability": "view",
      "type": "function"
    },
    {
      "inputs": [
        {
          "internalType": "uint256",
          "name": "tokenId",
          "type": "uint256"
        }
      ],
      "name": "ownerOf",
      "outputs": [
        {
          "internalType": "address",
          "name": "",
          "type": "address"
        }
      ],
      "stateMutability": "view",
      "type": "function"
    },
    {
      "inputs": [
        {
          "internalType": "uint16",
          "name": "",
          "type": "uint16"
        }
      ],
      "name": "payloadSizeLimitLookup",
      "outputs": [
        {
          "internalType": "uint256",
          "name": "",
          "type": "uint256"
        }
      ],
      "stateMutability": "view",
      "type": "function"
    },
    {
      "inputs": [],
      "name": "precrime",
      "outputs": [
        {
          "internalType": "address",
          "name": "",
          "type": "address"
        }
      ],
      "stateMutability": "view",
      "type": "function"
    },
    {
      "inputs": [],
      "name": "prerevealTokenURI",
      "outputs": [
        {
          "internalType": "string",
          "name": "",
          "type": "string"
        }
      ],
      "stateMutability": "view",
      "type": "function"
    },
    {
      "inputs": [
        {
          "internalType": "address",
          "name": "minterAddress",
          "type": "address"
        }
      ],
      "name": "removeFromWhiteList",
      "outputs": [],
      "stateMutability": "nonpayable",
      "type": "function"
    },
    {
      "inputs": [],
      "name": "renounceOwnership",
      "outputs": [],
      "stateMutability": "nonpayable",
      "type": "function"
    },
    {
      "inputs": [
        {
          "internalType": "uint16",
          "name": "_srcChainId",
          "type": "uint16"
        },
        {
          "internalType": "bytes",
          "name": "_srcAddress",
          "type": "bytes"
        },
        {
          "internalType": "uint64",
          "name": "_nonce",
          "type": "uint64"
        },
        {
          "internalType": "bytes",
          "name": "_payload",
          "type": "bytes"
        }
      ],
      "name": "retryMessage",
      "outputs": [],
      "stateMutability": "payable",
      "type": "function"
    },
    {
      "inputs": [],
      "name": "revealed",
      "outputs": [
        {
          "internalType": "bool",
          "name": "",
          "type": "bool"
        }
      ],
      "stateMutability": "view",
      "type": "function"
    },
    {
      "inputs": [
        {
          "internalType": "uint256",
          "name": "tokenId",
          "type": "uint256"
        },
        {
          "internalType": "uint256",
          "name": "salePrice",
          "type": "uint256"
        }
      ],
      "name": "royaltyInfo",
      "outputs": [
        {
          "internalType": "address",
          "name": "",
          "type": "address"
        },
        {
          "internalType": "uint256",
          "name": "",
          "type": "uint256"
        }
      ],
      "stateMutability": "view",
      "type": "function"
    },
    {
      "inputs": [
        {
          "internalType": "address",
          "name": "from",
          "type": "address"
        },
        {
          "internalType": "address",
          "name": "to",
          "type": "address"
        },
        {
          "internalType": "uint256",
          "name": "tokenId",
          "type": "uint256"
        }
      ],
      "name": "safeTransferFrom",
      "outputs": [],
      "stateMutability": "nonpayable",
      "type": "function"
    },
    {
      "inputs": [
        {
          "internalType": "address",
          "name": "from",
          "type": "address"
        },
        {
          "internalType": "address",
          "name": "to",
          "type": "address"
        },
        {
          "internalType": "uint256",
          "name": "tokenId",
          "type": "uint256"
        },
        {
          "internalType": "bytes",
          "name": "data",
          "type": "bytes"
        }
      ],
      "name": "safeTransferFrom",
      "outputs": [],
      "stateMutability": "nonpayable",
      "type": "function"
    },
    {
      "inputs": [
        {
          "internalType": "address",
          "name": "_from",
          "type": "address"
        },
        {
          "internalType": "uint16",
          "name": "_dstChainId",
          "type": "uint16"
        },
        {
          "internalType": "bytes",
          "name": "_toAddress",
          "type": "bytes"
        },
        {
          "internalType": "uint256[]",
          "name": "_tokenIds",
          "type": "uint256[]"
        },
        {
          "internalType": "address payable",
          "name": "_refundAddress",
          "type": "address"
        },
        {
          "internalType": "address",
          "name": "_zroPaymentAddress",
          "type": "address"
        },
        {
          "internalType": "bytes",
          "name": "_adapterParams",
          "type": "bytes"
        }
      ],
      "name": "sendBatchFrom",
      "outputs": [],
      "stateMutability": "payable",
      "type": "function"
    },
    {
      "inputs": [
        {
          "internalType": "address",
          "name": "_from",
          "type": "address"
        },
        {
          "internalType": "uint16",
          "name": "_dstChainId",
          "type": "uint16"
        },
        {
          "internalType": "bytes",
          "name": "_toAddress",
          "type": "bytes"
        },
        {
          "internalType": "uint256",
          "name": "_tokenId",
          "type": "uint256"
        },
        {
          "internalType": "address payable",
          "name": "_refundAddress",
          "type": "address"
        },
        {
          "internalType": "address",
          "name": "_zroPaymentAddress",
          "type": "address"
        },
        {
          "internalType": "bytes",
          "name": "_adapterParams",
          "type": "bytes"
        }
      ],
      "name": "sendFrom",
      "outputs": [],
      "stateMutability": "payable",
      "type": "function"
    },
    {
      "inputs": [
        {
          "internalType": "address",
          "name": "operator",
          "type": "address"
        },
        {
          "internalType": "bool",
          "name": "approved",
          "type": "bool"
        }
      ],
      "name": "setApprovalForAll",
      "outputs": [],
      "stateMutability": "nonpayable",
      "type": "function"
    },
    {
      "inputs": [
        {
          "internalType": "string",
          "name": "baseURI",
          "type": "string"
        }
      ],
      "name": "setBaseURI",
      "outputs": [],
      "stateMutability": "nonpayable",
      "type": "function"
    },
    {
      "inputs": [
        {
          "internalType": "uint16",
          "name": "_version",
          "type": "uint16"
        },
        {
          "internalType": "uint16",
          "name": "_chainId",
          "type": "uint16"
        },
        {
          "internalType": "uint256",
          "name": "_configType",
          "type": "uint256"
        },
        {
          "internalType": "bytes",
          "name": "_config",
          "type": "bytes"
        }
      ],
      "name": "setConfig",
      "outputs": [],
      "stateMutability": "nonpayable",
      "type": "function"
    },
    {
      "inputs": [
        {
          "internalType": "address",
          "name": "receiver",
          "type": "address"
        },
        {
          "internalType": "uint96",
          "name": "feeNumerator",
          "type": "uint96"
        }
      ],
      "name": "setDefaultRoyalty",
      "outputs": [],
      "stateMutability": "nonpayable",
      "type": "function"
    },
    {
      "inputs": [
        {
          "internalType": "uint16",
          "name": "_dstChainId",
          "type": "uint16"
        },
        {
          "internalType": "uint256",
          "name": "_dstChainIdToBatchLimit",
          "type": "uint256"
        }
      ],
      "name": "setDstChainIdToBatchLimit",
      "outputs": [],
      "stateMutability": "nonpayable",
      "type": "function"
    },
    {
      "inputs": [
        {
          "internalType": "uint16",
          "name": "_dstChainId",
          "type": "uint16"
        },
        {
          "internalType": "uint256",
          "name": "_dstChainIdToTransferGas",
          "type": "uint256"
        }
      ],
      "name": "setDstChainIdToTransferGas",
      "outputs": [],
      "stateMutability": "nonpayable",
      "type": "function"
    },
    {
      "inputs": [
        {
          "internalType": "uint16",
          "name": "_dstChainId",
          "type": "uint16"
        },
        {
          "internalType": "uint16",
          "name": "_packetType",
          "type": "uint16"
        },
        {
          "internalType": "uint256",
          "name": "_minGas",
          "type": "uint256"
        }
      ],
      "name": "setMinDstGas",
      "outputs": [],
      "stateMutability": "nonpayable",
      "type": "function"
    },
    {
      "inputs": [
        {
          "internalType": "uint256",
          "name": "_minGasToTransferAndStore",
          "type": "uint256"
        }
      ],
      "name": "setMinGasToTransferAndStore",
      "outputs": [],
      "stateMutability": "nonpayable",
      "type": "function"
    },
    {
      "inputs": [
        {
          "internalType": "uint256",
          "name": "_mintLimit",
          "type": "uint256"
        }
      ],
      "name": "setMintLimit",
      "outputs": [],
      "stateMutability": "nonpayable",
      "type": "function"
    },
    {
      "inputs": [
        {
          "internalType": "bool",
          "name": "_mintState",
          "type": "bool"
        }
      ],
      "name": "setMintState",
      "outputs": [],
      "stateMutability": "nonpayable",
      "type": "function"
    },
    {
      "inputs": [
        {
          "internalType": "uint16",
          "name": "_dstChainId",
          "type": "uint16"
        },
        {
          "internalType": "uint256",
          "name": "_size",
          "type": "uint256"
        }
      ],
      "name": "setPayloadSizeLimit",
      "outputs": [],
      "stateMutability": "nonpayable",
      "type": "function"
    },
    {
      "inputs": [
        {
          "internalType": "address",
          "name": "_precrime",
          "type": "address"
        }
      ],
      "name": "setPrecrime",
      "outputs": [],
      "stateMutability": "nonpayable",
      "type": "function"
    },
    {
      "inputs": [
        {
          "internalType": "string",
          "name": "prerevealURI",
          "type": "string"
        }
      ],
      "name": "setPrerevealTokenURI",
      "outputs": [],
      "stateMutability": "nonpayable",
      "type": "function"
    },
    {
      "inputs": [
        {
          "internalType": "uint16",
          "name": "_version",
          "type": "uint16"
        }
      ],
      "name": "setReceiveVersion",
      "outputs": [],
      "stateMutability": "nonpayable",
      "type": "function"
    },
    {
      "inputs": [
        {
          "internalType": "bool",
          "name": "_revealed",
          "type": "bool"
        }
      ],
      "name": "setRevealed",
      "outputs": [],
      "stateMutability": "nonpayable",
      "type": "function"
    },
    {
      "inputs": [
        {
          "internalType": "uint16",
          "name": "_version",
          "type": "uint16"
        }
      ],
      "name": "setSendVersion",
      "outputs": [],
      "stateMutability": "nonpayable",
      "type": "function"
    },
    {
      "inputs": [
        {
          "internalType": "address",
          "name": "_treasuryAddress",
          "type": "address"
        }
      ],
      "name": "setTreasuryAddress",
      "outputs": [],
      "stateMutability": "nonpayable",
      "type": "function"
    },
    {
      "inputs": [
        {
          "internalType": "uint16",
          "name": "_remoteChainId",
          "type": "uint16"
        },
        {
          "internalType": "bytes",
          "name": "_path",
          "type": "bytes"
        }
      ],
      "name": "setTrustedRemote",
      "outputs": [],
      "stateMutability": "nonpayable",
      "type": "function"
    },
    {
      "inputs": [
        {
          "internalType": "uint16",
          "name": "_remoteChainId",
          "type": "uint16"
        },
        {
          "internalType": "bytes",
          "name": "_remoteAddress",
          "type": "bytes"
        }
      ],
      "name": "setTrustedRemoteAddress",
      "outputs": [],
      "stateMutability": "nonpayable",
      "type": "function"
    },
    {
      "inputs": [
        {
          "internalType": "bytes32",
          "name": "",
          "type": "bytes32"
        }
      ],
      "name": "storedCredits",
      "outputs": [
        {
          "internalType": "uint16",
          "name": "srcChainId",
          "type": "uint16"
        },
        {
          "internalType": "address",
          "name": "toAddress",
          "type": "address"
        },
        {
          "internalType": "uint256",
          "name": "index",
          "type": "uint256"
        },
        {
          "internalType": "bool",
          "name": "creditsRemain",
          "type": "bool"
        }
      ],
      "stateMutability": "view",
      "type": "function"
    },
    {
      "inputs": [
        {
          "internalType": "bytes4",
          "name": "interfaceId",
          "type": "bytes4"
        }
      ],
      "name": "supportsInterface",
      "outputs": [
        {
          "internalType": "bool",
          "name": "",
          "type": "bool"
        }
      ],
      "stateMutability": "view",
      "type": "function"
    },
    {
      "inputs": [],
      "name": "symbol",
      "outputs": [
        {
          "internalType": "string",
          "name": "",
          "type": "string"
        }
      ],
      "stateMutability": "view",
      "type": "function"
    },
    {
      "inputs": [
        {
          "internalType": "uint256",
          "name": "tokenId",
          "type": "uint256"
        }
      ],
      "name": "tokenURI",
      "outputs": [
        {
          "internalType": "string",
          "name": "",
          "type": "string"
        }
      ],
      "stateMutability": "view",
      "type": "function"
    },
    {
      "inputs": [],
      "name": "totalSupply",
      "outputs": [
        {
          "internalType": "uint256",
          "name": "",
          "type": "uint256"
        }
      ],
      "stateMutability": "view",
      "type": "function"
    },
    {
      "inputs": [
        {
          "internalType": "address",
          "name": "from",
          "type": "address"
        },
        {
          "internalType": "address",
          "name": "to",
          "type": "address"
        },
        {
          "internalType": "uint256",
          "name": "tokenId",
          "type": "uint256"
        }
      ],
      "name": "transferFrom",
      "outputs": [],
      "stateMutability": "nonpayable",
      "type": "function"
    },
    {
      "inputs": [
        {
          "internalType": "address",
          "name": "newOwner",
          "type": "address"
        }
      ],
      "name": "transferOwnership",
      "outputs": [],
      "stateMutability": "nonpayable",
      "type": "function"
    },
    {
      "inputs": [],
      "name": "treasuryAddress",
      "outputs": [
        {
          "internalType": "address",
          "name": "",
          "type": "address"
        }
      ],
      "stateMutability": "view",
      "type": "function"
    },
    {
      "inputs": [
        {
          "internalType": "uint256",
          "name": "id",
          "type": "uint256"
        }
      ],
      "name": "treasuryMint",
      "outputs": [],
      "stateMutability": "nonpayable",
      "type": "function"
    },
    {
      "inputs": [],
      "name": "treasuryMintedCount",
      "outputs": [
        {
          "internalType": "uint256",
          "name": "",
          "type": "uint256"
        }
      ],
      "stateMutability": "view",
      "type": "function"
    },
    {
      "inputs": [
        {
          "internalType": "uint16",
          "name": "",
          "type": "uint16"
        }
      ],
      "name": "trustedRemoteLookup",
      "outputs": [
        {
          "internalType": "bytes",
          "name": "",
          "type": "bytes"
        }
      ],
      "stateMutability": "view",
      "type": "function"
    },
    {
      "inputs": [
        {
          "internalType": "address",
          "name": "_owner",
          "type": "address"
        }
      ],
      "name": "walletOfOwner",
      "outputs": [
        {
          "internalType": "uint256[]",
          "name": "",
          "type": "uint256[]"
        }
      ],
      "stateMutability": "view",
      "type": "function"
    },
    {
      "inputs": [],
      "name": "whiteListingPeriod",
      "outputs": [
        {
          "internalType": "bool",
          "name": "",
          "type": "bool"
        }
      ],
      "stateMutability": "view",
      "type": "function"
    }
  ],
  "transactionHash": "0xe93db18feebb0ae9b428c71f6d37085267bb747ad469b46c8a76d52b664115e7",
  "args": [
    "",
    "DecaNFT",
    "DNFT",
    2024,
    "0xbfD2135BFfbb0B5378b56643c2Df8a87552Bfa23"
  ],
  "numDeployments": 1,
  "solcInputHash": "f1b84444d82d7aeb46f49cdc1b96258c",
  "bytecode": "0x60a060405260006018553480156200001657600080fd5b50604051620056ca380380620056ca83398101604081905262000039916200033f565b838383838383838380806200004e3362000115565b60601b6001600160601b03191660805250600160065581620000c35760405162461bcd60e51b8152602060048201526024808201527f6d696e476173546f5472616e73666572416e6453746f7265206d7573742062656044820152630203e20360e41b60648201526084015b60405180910390fd5b506007558151620000dc90600b906020850190620001e6565b508051620000f290600c906020840190620001e6565b505050505050506200010a856200016560201b60201c565b50505050506200044c565b600080546001600160a01b038381166001600160a01b0319831681178455604051919092169283917f8be0079c531659141344cd1fd0a4f28419497f9722a3daafe3b4186f6b6457e09190a35050565b6200016f62000188565b805162000184906013906020840190620001e6565b5050565b6000546001600160a01b03163314620001e45760405162461bcd60e51b815260206004820181905260248201527f4f776e61626c653a2063616c6c6572206973206e6f7420746865206f776e65726044820152606401620000ba565b565b828054620001f490620003f9565b90600052602060002090601f01602090048101928262000218576000855562000263565b82601f106200023357805160ff191683800117855562000263565b8280016001018555821562000263579182015b828111156200026357825182559160200191906001019062000246565b506200027192915062000275565b5090565b5b8082111562000271576000815560010162000276565b600082601f8301126200029d578081fd5b81516001600160401b0380821115620002ba57620002ba62000436565b604051601f8301601f19908116603f01168101908282118183101715620002e557620002e562000436565b8160405283815260209250868385880101111562000301578485fd5b8491505b8382101562000324578582018301518183018401529082019062000305565b838211156200033557848385830101525b9695505050505050565b600080600080600060a0868803121562000357578081fd5b85516001600160401b03808211156200036e578283fd5b6200037c89838a016200028c565b9650602088015191508082111562000392578283fd5b620003a089838a016200028c565b95506040880151915080821115620003b6578283fd5b50620003c5888289016200028c565b60608801516080890151919550935090506001600160a01b0381168114620003eb578182fd5b809150509295509295909350565b600181811c908216806200040e57607f821691505b602082108114156200043057634e487b7160e01b600052602260045260246000fd5b50919050565b634e487b7160e01b600052604160045260246000fd5b60805160601c615227620004a360003960008181610bc701528181610efa0152818161123a015281816114bf0152818161178c01528181612297015281816127cf0152818161291e0152613b7a01526152276000f3fe6080604052600436106104515760003560e01c80638cfd8f5c1161023f578063c5f956af11610139578063eb8d72b7116100b6578063f4ad0f971161007a578063f4ad0f9714610e56578063f5ecbdbc14610e6b578063f68dcaa214610e8b578063f769572d14610eaa578063fa25f9b614610eca57600080fd5b8063eb8d72b714610da6578063efdc778814610dc6578063f235364114610de6578063f2fde38b14610e06578063f46eccc414610e2657600080fd5b8063d1deba1f116100fd578063d1deba1f14610cf5578063d547cfb714610d08578063df2a5b3b14610d1d578063e0a8085314610d3d578063e985e9c514610d5d57600080fd5b8063c5f956af14610c5f578063c87b56dd14610c7f578063cbed8b9c14610c9f578063d0aa0a0d14610cbf578063d12473a514610cd557600080fd5b8063a22cb465116101c7578063b353aaa71161018b578063b353aaa714610bb5578063b88d4fde14610be9578063baf3292d14610c09578063c051e38a14610c29578063c446183414610c4957600080fd5b8063a22cb46514610b1a578063a6c3d16514610b3a578063ab3ffb9314610b5a578063af3fb21c14610b6d578063b09d28cc14610b9557600080fd5b806395d89b411161020e57806395d89b4114610a8f578063996517cf14610aa45780639e6a1d7d14610aba5780639ea5d6b114610ada5780639f38369a14610afa57600080fd5b80638cfd8f5c146109f95780638da5cb5b14610a315780638ffa1f2a14610a4f578063950c8a7414610a6f57600080fd5b80633f1f4fa41161035057806351830227116102d85780636605bfda1161029c5780636605bfda1461096457806366ad5c8a1461098457806370a08231146109a4578063715018a6146109c45780637533d788146109d957600080fd5b806351830227146108a857806351905636146108c257806355f804b3146108d55780635b8c41e6146108f55780636352211e1461094457600080fd5b806342d65a8d1161031f57806342d65a8d146107f8578063438b63001461081857806347ee03941461084557806348288190146108655780634ac3f4ff1461087b57600080fd5b80633f1f4fa41461077857806340c10f19146107a557806342842e0e146107b857806342966c68146107d857600080fd5b80630df37483116103de57806326412aca116103a257806326412aca146106ae5780632a205e3d146106ce5780632a55205a146107035780633502a716146107425780633d8b38f61461075857600080fd5b80630df37483146105a757806310ddb137146105c757806318160ddd146105e757806322a3ecf91461060b57806323b872dd1461068e57600080fd5b806306fdde031161042557806306fdde03146104ed57806307e0db171461050f578063081812fc1461052f578063095ea7b3146105675780630b4cad4c1461058757600080fd5b80621d35671461045657806301bf66481461047857806301ffc9a71461049857806304634d8d146104cd575b600080fd5b34801561046257600080fd5b50610476610471366004614841565b610ef7565b005b34801561048457600080fd5b5061047661049336600461430e565b611128565b3480156104a457600080fd5b506104b86104b336600461463b565b611151565b60405190151581526020015b60405180910390f35b3480156104d957600080fd5b506104766104e83660046145d1565b611171565b3480156104f957600080fd5b50610502611187565b6040516104c49190614d2e565b34801561051b57600080fd5b5061047661052a3660046147d7565b611219565b34801561053b57600080fd5b5061054f61054a366004614623565b6112a2565b6040516001600160a01b0390911681526020016104c4565b34801561057357600080fd5b506104766105823660046145a6565b6112c9565b34801561059357600080fd5b506104766105a2366004614623565b6113df565b3480156105b357600080fd5b506104766105c2366004614b49565b61147f565b3480156105d357600080fd5b506104766105e23660046147d7565b61149e565b3480156105f357600080fd5b506105fd60175481565b6040519081526020016104c4565b34801561061757600080fd5b5061065f610626366004614623565b600a6020526000908152604090208054600182015460029092015461ffff821692620100009092046001600160a01b0316919060ff1684565b6040805161ffff90951685526001600160a01b03909316602085015291830152151560608201526080016104c4565b34801561069a57600080fd5b506104766106a9366004614362565b6114f6565b3480156106ba57600080fd5b506104766106c9366004614609565b611528565b3480156106da57600080fd5b506106ee6106e9366004614976565b611583565b604080519283526020830191909152016104c4565b34801561070f57600080fd5b5061072361071e366004614b64565b6115a9565b604080516001600160a01b0390931683526020830191909152016104c4565b34801561074e57600080fd5b506105fd6107e881565b34801561076457600080fd5b506104b86107733660046147f1565b611657565b34801561078457600080fd5b506105fd6107933660046147d7565b60036020526000908152604090205481565b6104766107b33660046145a6565b611723565b3480156107c457600080fd5b506104766107d3366004614362565b611746565b3480156107e457600080fd5b506104766107f3366004614623565b611761565b34801561080457600080fd5b506104766108133660046147f1565b61176d565b34801561082457600080fd5b5061083861083336600461430e565b6117f3565b6040516104c49190614d02565b34801561085157600080fd5b5061047661086036600461430e565b6118f4565b34801561087157600080fd5b506105fd60075481565b34801561088757600080fd5b506105fd6108963660046147d7565b60086020526000908152604090205481565b3480156108b457600080fd5b506015546104b89060ff1681565b6104766108d036600461450c565b611920565b3480156108e157600080fd5b506104766108f0366004614792565b611937565b34801561090157600080fd5b506105fd6109103660046149d2565b6005602090815260009384526040808520845180860184018051928152908401958401959095209452929052825290205481565b34801561095057600080fd5b5061054f61095f366004614623565b611952565b34801561097057600080fd5b5061047661097f36600461430e565b6119b2565b34801561099057600080fd5b5061047661099f366004614841565b6119dc565b3480156109b057600080fd5b506105fd6109bf36600461430e565b611ab8565b3480156109d057600080fd5b50610476611b3e565b3480156109e557600080fd5b506105026109f43660046147d7565b611b52565b348015610a0557600080fd5b506105fd610a14366004614a2d565b600260209081526000928352604080842090915290825290205481565b348015610a3d57600080fd5b506000546001600160a01b031661054f565b348015610a5b57600080fd5b50610476610a6a366004614673565b611bec565b348015610a7b57600080fd5b5060045461054f906001600160a01b031681565b348015610a9b57600080fd5b50610502611e35565b348015610ab057600080fd5b506105fd60165481565b348015610ac657600080fd5b50610476610ad5366004614623565b611e44565b348015610ae657600080fd5b50610476610af5366004614b49565b611e51565b348015610b0657600080fd5b50610502610b153660046147d7565b611f08565b348015610b2657600080fd5b50610476610b3536600461440b565b61201f565b348015610b4657600080fd5b50610476610b553660046147f1565b61202a565b610476610b6836600461443f565b6120bd565b348015610b7957600080fd5b50610b82600181565b60405161ffff90911681526020016104c4565b348015610ba157600080fd5b50610476610bb0366004614792565b6120cc565b348015610bc157600080fd5b5061054f7f000000000000000000000000000000000000000000000000000000000000000081565b348015610bf557600080fd5b50610476610c043660046143a2565b6120e7565b348015610c1557600080fd5b50610476610c2436600461430e565b61211f565b348015610c3557600080fd5b506015546104b89062010000900460ff1681565b348015610c5557600080fd5b506105fd61271081565b348015610c6b57600080fd5b5060195461054f906001600160a01b031681565b348015610c8b57600080fd5b50610502610c9a366004614623565b612175565b348015610cab57600080fd5b50610476610cba366004614add565b612278565b348015610ccb57600080fd5b506105fd60185481565b348015610ce157600080fd5b50610476610cf0366004614b49565b61230d565b610476610d03366004614841565b6123bd565b348015610d1457600080fd5b506105026125d3565b348015610d2957600080fd5b50610476610d38366004614aa2565b6125e0565b348015610d4957600080fd5b50610476610d58366004614609565b61264a565b348015610d6957600080fd5b506104b8610d7836600461432a565b6001600160a01b03918216600090815260106020908152604080832093909416825291909152205460ff1690565b348015610db257600080fd5b50610476610dc13660046147f1565b612665565b348015610dd257600080fd5b50610476610de1366004614623565b6126bf565b348015610df257600080fd5b506106ee610e013660046148d1565b612790565b348015610e1257600080fd5b50610476610e2136600461430e565b61286a565b348015610e3257600080fd5b506104b8610e4136600461430e565b601a6020526000908152604090205460ff1681565b348015610e6257600080fd5b506105026128e0565b348015610e7757600080fd5b50610502610e86366004614a56565b6128ed565b348015610e9757600080fd5b506015546104b890610100900460ff1681565b348015610eb657600080fd5b50610476610ec5366004614609565b6129af565b348015610ed657600080fd5b506105fd610ee53660046147d7565b60096020526000908152604090205481565b337f00000000000000000000000000000000000000000000000000000000000000006001600160a01b031614610f745760405162461bcd60e51b815260206004820152601e60248201527f4c7a4170703a20696e76616c696420656e64706f696e742063616c6c6572000060448201526064015b60405180910390fd5b61ffff861660009081526001602052604081208054610f9290615144565b80601f0160208091040260200160405190810160405280929190818152602001828054610fbe90615144565b801561100b5780601f10610fe05761010080835404028352916020019161100b565b820191906000526020600020905b815481529060010190602001808311610fee57829003601f168201915b50505050509050805186869050148015611026575060008151115b801561104e5750805160208201206040516110449088908890614c37565b6040518091039020145b6110a95760405162461bcd60e51b815260206004820152602660248201527f4c7a4170703a20696e76616c696420736f757263652073656e64696e6720636f6044820152651b9d1c9858dd60d21b6064820152608401610f6b565b61111f8787878080601f01602080910402602001604051908101604052809392919081815260200183838082843760009201919091525050604080516020601f8a018190048102820181019092528881528a9350915088908890819084018382808284376000920191909152506129d192505050565b50505050505050565b611130612a4a565b6001600160a01b03166000908152601a60205260409020805460ff19169055565b600061115c82612aa4565b8061116b575061116b82612ae4565b92915050565b611179612a4a565b6111838282612b09565b5050565b6060600b805461119690615144565b80601f01602080910402602001604051908101604052809291908181526020018280546111c290615144565b801561120f5780601f106111e45761010080835404028352916020019161120f565b820191906000526020600020905b8154815290600101906020018083116111f257829003601f168201915b5050505050905090565b611221612a4a565b6040516307e0db1760e01b815261ffff821660048201527f00000000000000000000000000000000000000000000000000000000000000006001600160a01b0316906307e0db17906024015b600060405180830381600087803b15801561128757600080fd5b505af115801561129b573d6000803e3d6000fd5b5050505050565b60006112ad82612c06565b506000908152600f60205260409020546001600160a01b031690565b60006112d482611952565b9050806001600160a01b0316836001600160a01b031614156113425760405162461bcd60e51b815260206004820152602160248201527f4552433732313a20617070726f76616c20746f2063757272656e74206f776e656044820152603960f91b6064820152608401610f6b565b336001600160a01b038216148061135e575061135e8133610d78565b6113d05760405162461bcd60e51b815260206004820152603d60248201527f4552433732313a20617070726f76652063616c6c6572206973206e6f7420746f60448201527f6b656e206f776e6572206f7220617070726f76656420666f7220616c6c0000006064820152608401610f6b565b6113da8383612c56565b505050565b6113e7612a4a565b600081116114435760405162461bcd60e51b8152602060048201526024808201527f6d696e476173546f5472616e73666572416e6453746f7265206d7573742062656044820152630203e20360e41b6064820152608401610f6b565b60078190556040518181527ffebbc4f8bb9ec2313950c718d43123124b15778efda4c1f1d529de2995b4f34d906020015b60405180910390a150565b611487612a4a565b61ffff909116600090815260036020526040902055565b6114a6612a4a565b6040516310ddb13760e01b815261ffff821660048201527f00000000000000000000000000000000000000000000000000000000000000006001600160a01b0316906310ddb1379060240161126d565b611501335b82612cc4565b61151d5760405162461bcd60e51b8152600401610f6b90614d6f565b6113da838383612d42565b611530612a4a565b6015805462ff00001916620100008315158102919091179182905560405160ff9190920416151581527f992fe84c8bbd52855b22035907ca1f9e1d6bcbb390bc81150808e8443d01668c90602001611474565b60008061159b878761159488612ea6565b8787612790565b915091509550959350505050565b60008281526012602090815260408083208151808301909252546001600160a01b038116808352600160a01b9091046001600160601b031692820192909252829161161e5750604080518082019091526011546001600160a01b0381168252600160a01b90046001600160601b031660208201525b60208101516000906127109061163d906001600160601b0316876150e2565b61164791906150c2565b91519350909150505b9250929050565b61ffff83166000908152600160205260408120805482919061167890615144565b80601f01602080910402602001604051908101604052809291908181526020018280546116a490615144565b80156116f15780601f106116c6576101008083540402835291602001916116f1565b820191906000526020600020905b8154815290600101906020018083116116d457829003601f168201915b505050505090508383604051611708929190614c37565b60405180910390208180519060200120149150509392505050565b61172d8282612eff565b6017805490600061173d8361517f565b91905055505050565b6113da838383604051806020016040528060008152506120e7565b61176a81612f19565b50565b611775612a4a565b6040516342d65a8d60e01b81526001600160a01b037f000000000000000000000000000000000000000000000000000000000000000016906342d65a8d906117c590869086908690600401614ea7565b600060405180830381600087803b1580156117df57600080fd5b505af115801561111f573d6000803e3d6000fd5b6060600061180083611ab8565b90506000816001600160401b0381111561182a57634e487b7160e01b600052604160045260246000fd5b604051908082528060200260200182016040528015611853578160200160208202803683370190505b50905081611862579392505050565b6000805b6107e88110156118ea57856001600160a01b031661188382611952565b6001600160a01b031614156118d857808383815181106118b357634e487b7160e01b600052603260045260246000fd5b6020908102919091010152816118c88161517f565b925050838214156118d8576118ea565b806118e28161517f565b915050611866565b5090949350505050565b6118fc612a4a565b6001600160a01b03166000908152601a60205260409020805460ff19166001179055565b61111f87878761192f88612ea6565b878787612fae565b61193f612a4a565b805161118390601390602084019061406f565b6000818152600d60205260408120546001600160a01b03168061116b5760405162461bcd60e51b8152602060048201526018602482015277115490cdcc8c4e881a5b9d985b1a59081d1bdad95b88125160421b6044820152606401610f6b565b6119ba612a4a565b601980546001600160a01b0319166001600160a01b0392909216919091179055565b333014611a3a5760405162461bcd60e51b815260206004820152602660248201527f4e6f6e626c6f636b696e674c7a4170703a2063616c6c6572206d7573742062656044820152650204c7a4170760d41b6064820152608401610f6b565b611ab08686868080601f01602080910402602001604051908101604052809392919081815260200183838082843760009201919091525050604080516020601f89018190048102820181019092528781528993509150879087908190840183828082843760009201919091525061319092505050565b505050505050565b60006001600160a01b038216611b225760405162461bcd60e51b815260206004820152602960248201527f4552433732313a2061646472657373207a65726f206973206e6f7420612076616044820152683634b21037bbb732b960b91b6064820152608401610f6b565b506001600160a01b03166000908152600e602052604090205490565b611b46612a4a565b611b5060006132e7565b565b60016020526000908152604090208054611b6b90615144565b80601f0160208091040260200160405190810160405280929190818152602001828054611b9790615144565b8015611be45780601f10611bb957610100808354040283529160200191611be4565b820191906000526020600020905b815481529060010190602001808311611bc757829003601f168201915b505050505081565b611bf4613337565b80516020808301919091206000818152600a90925260409091206002015460ff16611c555760405162461bcd60e51b81526020600482015260116024820152701b9bc818dc99591a5d1cc81cdd1bdc9959607a1b6044820152606401610f6b565b600082806020019051810190611c6b91906146d7565b6000848152600a602052604081208054600190910154929450909250611ca79161ffff8216916201000090046001600160a01b03169085613391565b6000848152600a60205260409020600101549091508111611d1c5760405162461bcd60e51b815260206004820152602960248201527f6e6f7420656e6f7567682067617320746f2070726f6365737320637265646974604482015268103a3930b739b332b960b91b6064820152608401610f6b565b8151811415611d94576000838152600a602052604080822080546001600160b01b031916815560018101929092556002909101805460ff19169055517fd7be02b8dd0d27bd0517a9cb4d7469ce27df4313821ae5ec1ff69acc594ba23390611d879085815260200190565b60405180910390a1611e28565b604080516080810182526000858152600a6020818152848320805461ffff80821687526001600160a01b03620100008084048216868a019081529989018b8152600160608b01818152998f90529790965297519851169096026001600160b01b03199091169690951695909517939093178455915191830191909155516002909101805491151560ff199092169190911790555b50505061176a6001600655565b6060600c805461119690615144565b611e4c612a4a565b601655565b611e59612a4a565b60008111611eb45760405162461bcd60e51b815260206004820152602260248201527f647374436861696e4964546f42617463684c696d6974206d757374206265203e604482015261020360f41b6064820152608401610f6b565b61ffff8216600081815260086020908152604091829020849055815192835282018390527f7315f7654d594ead24a30160ed9ba2d23247f543016b918343591e93d7afdb6d91015b60405180910390a15050565b61ffff8116600090815260016020526040812080546060929190611f2b90615144565b80601f0160208091040260200160405190810160405280929190818152602001828054611f5790615144565b8015611fa45780601f10611f7957610100808354040283529160200191611fa4565b820191906000526020600020905b815481529060010190602001808311611f8757829003601f168201915b50505050509050805160001415611ffd5760405162461bcd60e51b815260206004820152601d60248201527f4c7a4170703a206e6f20747275737465642070617468207265636f72640000006044820152606401610f6b565b6120186000601483516120109190615101565b8391906133f1565b9392505050565b6111833383836134fe565b612032612a4a565b81813060405160200161204793929190614c47565b60408051601f1981840301815291815261ffff8516600090815260016020908152919020825161207c9391929091019061406f565b507f8c0400cfe2d1199b1a725c78960bcc2a344d869b80590d0f2bd005db15a572ce8383836040516120b093929190614ea7565b60405180910390a1505050565b61111f87878787878787612fae565b6120d4612a4a565b805161118390601490602084019061406f565b6120f13383612cc4565b61210d5760405162461bcd60e51b8152600401610f6b90614d6f565b612119848484846135cd565b50505050565b612127612a4a565b600480546001600160a01b0319166001600160a01b0383169081179091556040519081527f5db758e995a17ec1ad84bdef7e8c3293a0bd6179bcce400dff5d4c3d87db726b90602001611474565b606061218082613600565b5060155460ff1661221d576014805461219890615144565b80601f01602080910402602001604051908101604052809291908181526020018280546121c490615144565b80156122115780601f106121e657610100808354040283529160200191612211565b820191906000526020600020905b8154815290600101906020018083116121f457829003601f168201915b50505050509050919050565b600061222761361d565b905060008151116122475760405180602001604052806000815250612018565b806122518461362c565b604051602001612262929190614c89565b6040516020818303038152906040529392505050565b612280612a4a565b6040516332fb62e760e21b81526001600160a01b037f0000000000000000000000000000000000000000000000000000000000000000169063cbed8b9c906122d49088908890889088908890600401615002565b600060405180830381600087803b1580156122ee57600080fd5b505af1158015612302573d6000803e3d6000fd5b505050505050505050565b612315612a4a565b600081116123715760405162461bcd60e51b815260206004820152602360248201527f647374436861696e4964546f5472616e73666572476173206d7573742062652060448201526203e20360ec1b6064820152608401610f6b565b61ffff8216600081815260096020908152604091829020849055815192835282018390527fc46df2983228ac2d9754e94a0d565e6671665dc8ad38602bc8e544f0685a29fb9101611efc565b61ffff861660009081526005602052604080822090516123e09088908890614c37565b90815260408051602092819003830190206001600160401b038716600090815292529020549050806124605760405162461bcd60e51b815260206004820152602360248201527f4e6f6e626c6f636b696e674c7a4170703a206e6f2073746f726564206d65737360448201526261676560e81b6064820152608401610f6b565b808383604051612471929190614c37565b6040518091039020146124d05760405162461bcd60e51b815260206004820152602160248201527f4e6f6e626c6f636b696e674c7a4170703a20696e76616c6964207061796c6f616044820152601960fa1b6064820152608401610f6b565b61ffff871660009081526005602052604080822090516124f39089908990614c37565b90815260408051602092819003830181206001600160401b038916600090815290845282902093909355601f8801829004820283018201905286825261258b918991899089908190840183828082843760009201919091525050604080516020601f8a018190048102820181019092528881528a93509150889088908190840183828082843760009201919091525061319092505050565b7fc264d91f3adc5588250e1551f547752ca0cfa8f6b530d243b9f9f4cab10ea8e587878787856040516125c2959493929190614ec5565b60405180910390a150505050505050565b60138054611b6b90615144565b6125e8612a4a565b61ffff83811660008181526002602090815260408083209487168084529482529182902085905581519283528201929092529081018290527f9d5c7c0b934da8fefa9c7760c98383778a12dfbfc0c3b3106518f43fb9508ac0906060016120b0565b612652612a4a565b6015805460ff1916911515919091179055565b61266d612a4a565b61ffff8316600090815260016020526040902061268b9083836140f3565b507ffa41487ad5d6728f0b19276fa1eddc16558578f5109fc39d2dc33c3230470dab8383836040516120b093929190614ea7565b6126c7612a4a565b6019546001600160a01b031661272a5760405162461bcd60e51b815260206004820152602260248201527f547265617375727920416464726573732073686f756c64206265207365742075604482015261381760f11b6064820152608401610f6b565b60646018541061274d576040516320703ae960e21b815260040160405180910390fd5b601954612763906001600160a01b031682612eff565b601780549060006127738361517f565b9091555050601880549060006127888361517f565b919050555050565b600080600086866040516020016127a8929190614d41565b60408051601f198184030181529082905263040a7bb160e41b825291506001600160a01b037f000000000000000000000000000000000000000000000000000000000000000016906340a7bb109061280c908b90309086908b908b90600401614e53565b604080518083038186803b15801561282357600080fd5b505afa158015612837573d6000803e3d6000fd5b505050506040513d601f19601f8201168201806040525081019061285b9190614b85565b92509250509550959350505050565b612872612a4a565b6001600160a01b0381166128d75760405162461bcd60e51b815260206004820152602660248201527f4f776e61626c653a206e6577206f776e657220697320746865207a65726f206160448201526564647265737360d01b6064820152608401610f6b565b61176a816132e7565b60148054611b6b90615144565b604051633d7b2f6f60e21b815261ffff808616600483015284166024820152306044820152606481018290526060907f00000000000000000000000000000000000000000000000000000000000000006001600160a01b03169063f5ecbdbc9060840160006040518083038186803b15801561296857600080fd5b505afa15801561297c573d6000803e3d6000fd5b505050506040513d6000823e601f3d908101601f191682016040526129a491908101906146a5565b90505b949350505050565b6129b7612a4a565b601580549115156101000261ff0019909216919091179055565b600080612a345a60966366ad5c8a60e01b898989896040516024016129f99493929190614f67565b60408051601f198184030181529190526020810180516001600160e01b03166001600160e01b031990931692909217909152309291906136d6565b9150915081611ab057611ab0868686868561376e565b6000546001600160a01b03163314611b505760405162461bcd60e51b815260206004820181905260248201527f4f776e61626c653a2063616c6c6572206973206e6f7420746865206f776e65726044820152606401610f6b565b60006001600160e01b031982166380ac58cd60e01b1480612ad557506001600160e01b03198216635b5e139f60e01b145b8061116b575061116b8261380b565b60006001600160e01b0319821663152a902d60e11b148061116b575061116b82613840565b6127106001600160601b0382161115612b775760405162461bcd60e51b815260206004820152602a60248201527f455243323938313a20726f79616c7479206665652077696c6c206578636565646044820152692073616c65507269636560b01b6064820152608401610f6b565b6001600160a01b038216612bcd5760405162461bcd60e51b815260206004820152601960248201527f455243323938313a20696e76616c6964207265636569766572000000000000006044820152606401610f6b565b604080518082019091526001600160a01b039092168083526001600160601b039091166020909201829052600160a01b90910217601155565b612c0f81613600565b61176a5760405162461bcd60e51b8152602060048201526018602482015277115490cdcc8c4e881a5b9d985b1a59081d1bdad95b88125160421b6044820152606401610f6b565b6000818152600f6020526040902080546001600160a01b0319166001600160a01b0384169081179091558190612c8b82611952565b6001600160a01b03167f8c5be1e5ebec7d5bd14f71427d1e84f3dd0314c0f7b2291e5b200ac8c7c3b92560405160405180910390a45050565b600080612cd083611952565b9050806001600160a01b0316846001600160a01b03161480612d1757506001600160a01b0380821660009081526010602090815260408083209388168352929052205460ff165b806129a75750836001600160a01b0316612d30846112a2565b6001600160a01b031614949350505050565b826001600160a01b0316612d5582611952565b6001600160a01b031614612d7b5760405162461bcd60e51b8152600401610f6b90614e0e565b6001600160a01b038216612ddd5760405162461bcd60e51b8152602060048201526024808201527f4552433732313a207472616e7366657220746f20746865207a65726f206164646044820152637265737360e01b6064820152608401610f6b565b826001600160a01b0316612df082611952565b6001600160a01b031614612e165760405162461bcd60e51b8152600401610f6b90614e0e565b6000818152600f6020908152604080832080546001600160a01b03199081169091556001600160a01b03878116808652600e8552838620805460001901905590871680865283862080546001019055868652600d90945282852080549092168417909155905184937fddf252ad1be2c89b69c2b068fc378daa952ba7f163c4a11628f55a4df523b3ef91a4505050565b60408051600180825281830190925260609160009190602080830190803683370190505090508281600081518110612eee57634e487b7160e01b600052603260045260246000fd5b602090810291909101015292915050565b61118382826040518060200160405280600081525061385d565b6000612f2482611952565b9050612f2f82611952565b6000838152600f6020908152604080832080546001600160a01b03199081169091556001600160a01b038516808552600e84528285208054600019019055878552600d909352818420805490911690555192935084927fddf252ad1be2c89b69c2b068fc378daa952ba7f163c4a11628f55a4df523b3ef908390a45050565b6000845111612ff55760405162461bcd60e51b8152602060048201526013602482015272746f6b656e4964735b5d20697320656d70747960681b6044820152606401610f6b565b835160011480613019575061ffff8616600090815260086020526040902054845111155b6130705760405162461bcd60e51b815260206004820152602260248201527f62617463682073697a65206578636565647320647374206261746368206c696d6044820152611a5d60f21b6064820152608401610f6b565b60005b84518110156130c1576130af8888888885815181106130a257634e487b7160e01b600052603260045260246000fd5b6020026020010151613890565b806130b98161517f565b915050613073565b50600085856040516020016130d7929190614d41565b604051602081830303815290604052905061311c876001848851600960008d61ffff1661ffff1681526020019081526020016000205461311791906150e2565b61397b565b61312a878286868634613a50565b856040516131389190614c6d565b6040518091039020886001600160a01b03168861ffff167fe1b87c47fdeb4f9cbadbca9df3af7aba453bb6e501075d0440d88125b711522a8860405161317e9190614d02565b60405180910390a45050505050505050565b600080828060200190518101906131a791906146d7565b6014820151919350915060006131bf88838386613391565b905082518110156132935784516020808701919091206040805160808101825261ffff808d1682526001600160a01b038088168387019081528385018881526001606086018181526000898152600a909a529887902095518654935190941662010000026001600160b01b03199093169390941692909217178355519082015592516002909301805493151560ff199094169390931790925590517f10e0b70d256bccc84b7027506978bd8b68984a870788b93b479def144c839ad7906132899083908990614d15565b60405180910390a1505b816001600160a01b0316876040516132ab9190614c6d565b60405180910390208961ffff167f5b821db8a46f8ecbe1941ba2f51cfeea9643268b56631f70d45e2a745d9902658660405161317e9190614d02565b600080546001600160a01b038381166001600160a01b0319831681178455604051919092169283917f8be0079c531659141344cd1fd0a4f28419497f9722a3daafe3b4186f6b6457e09190a35050565b6002600654141561338a5760405162461bcd60e51b815260206004820152601f60248201527f5265656e7472616e637947756172643a207265656e7472616e742063616c6c006044820152606401610f6b565b6002600655565b6000825b82518110156129a4576007545a10156133ad576129a4565b6133df86868584815181106133d257634e487b7160e01b600052603260045260246000fd5b6020026020010151613bf6565b806133e98161517f565b915050613395565b6060816133ff81601f6150aa565b101561343e5760405162461bcd60e51b815260206004820152600e60248201526d736c6963655f6f766572666c6f7760901b6044820152606401610f6b565b61344882846150aa565b8451101561348c5760405162461bcd60e51b8152602060048201526011602482015270736c6963655f6f75744f66426f756e647360781b6044820152606401610f6b565b6060821580156134ab57604051915060008252602082016040526134f5565b6040519150601f8416801560200281840101858101878315602002848b0101015b818310156134e45780518352602092830192016134cc565b5050858452601f01601f1916604052505b50949350505050565b816001600160a01b0316836001600160a01b031614156135605760405162461bcd60e51b815260206004820152601960248201527f4552433732313a20617070726f766520746f2063616c6c6572000000000000006044820152606401610f6b565b6001600160a01b03838116600081815260106020908152604080832094871680845294825291829020805460ff191686151590811790915591519182527f17307eab39ab6107e8899845ad3d59bd9653f200f220920489ca2b5937696c31910160405180910390a3505050565b6135d8848484612d42565b6135e484848484613c56565b6121195760405162461bcd60e51b8152600401610f6b90614dbc565b6000908152600d60205260409020546001600160a01b0316151590565b60606013805461119690615144565b6060600061363983613d60565b60010190506000816001600160401b0381111561366657634e487b7160e01b600052604160045260246000fd5b6040519080825280601f01601f191660200182016040528015613690576020820181803683370190505b5090508181016020015b600019016f181899199a1a9b1b9c1cb0b131b232b360811b600a86061a8153600a85049450846136c9576136ce565b61369a565b509392505050565b6000606060008060008661ffff166001600160401b0381111561370957634e487b7160e01b600052604160045260246000fd5b6040519080825280601f01601f191660200182016040528015613733576020820181803683370190505b50905060008087516020890160008d8df191503d925086831115613755578692505b828152826000602083013e909890975095505050505050565b8180519060200120600560008761ffff1661ffff1681526020019081526020016000208560405161379f9190614c6d565b9081526040805191829003602090810183206001600160401b0388166000908152915220919091557fe183f33de2837795525b4792ca4cd60535bd77c53b7e7030060bfcf5734d6b0c906137fc9087908790879087908790614fb0565b60405180910390a15050505050565b60006001600160e01b031982166322bac5d960e01b148061116b57506301ffc9a760e01b6001600160e01b031983161461116b565b60006001600160e01b03198216158061116b575061116b82612aa4565b6138678383613e38565b6138746000848484613c56565b6113da5760405162461bcd60e51b8152600401610f6b90614dbc565b613899336114fb565b6138fc5760405162461bcd60e51b815260206004820152602e60248201527f4f4e46543732313a2073656e642063616c6c6572206973206e6f74206f776e6560448201526d1c881b9bdc88185c1c1c9bdd995960921b6064820152608401610f6b565b836001600160a01b031661390f82611952565b6001600160a01b0316146139705760405162461bcd60e51b815260206004820152602260248201527f4f4e46543732313a2073656e642066726f6d20696e636f7272656374206f776e60448201526132b960f11b6064820152608401610f6b565b612119843083612d42565b600061398683613fa5565b61ffff808716600090815260026020908152604080832093891683529290522054909150806139f75760405162461bcd60e51b815260206004820152601a60248201527f4c7a4170703a206d696e4761734c696d6974206e6f74207365740000000000006044820152606401610f6b565b613a0183826150aa565b821015611ab05760405162461bcd60e51b815260206004820152601b60248201527f4c7a4170703a20676173206c696d697420697320746f6f206c6f7700000000006044820152606401610f6b565b61ffff861660009081526001602052604081208054613a6e90615144565b80601f0160208091040260200160405190810160405280929190818152602001828054613a9a90615144565b8015613ae75780601f10613abc57610100808354040283529160200191613ae7565b820191906000526020600020905b815481529060010190602001808311613aca57829003601f168201915b50505050509050805160001415613b595760405162461bcd60e51b815260206004820152603060248201527f4c7a4170703a2064657374696e6174696f6e20636861696e206973206e6f742060448201526f61207472757374656420736f7572636560801b6064820152608401610f6b565b613b64878751614001565b60405162c5803160e81b81526001600160a01b037f0000000000000000000000000000000000000000000000000000000000000000169063c5803100908490613bbb908b9086908c908c908c908c90600401614f00565b6000604051808303818588803b158015613bd457600080fd5b505af1158015613be8573d6000803e3d6000fd5b505050505050505050505050565b613bff81613600565b1580613c2b5750613c0f81613600565b8015613c2b575030613c2082611952565b6001600160a01b0316145b613c3457600080fd5b613c3d81613600565b613c4b576113da8282612eff565b6113da308383612d42565b60006001600160a01b0384163b15613d5857604051630a85bd0160e11b81526001600160a01b0385169063150b7a0290613c9a903390899088908890600401614cc5565b602060405180830381600087803b158015613cb457600080fd5b505af1925050508015613ce4575060408051601f3d908101601f19168201909252613ce191810190614657565b60015b613d3e573d808015613d12576040519150601f19603f3d011682016040523d82523d6000602084013e613d17565b606091505b508051613d365760405162461bcd60e51b8152600401610f6b90614dbc565b805181602001fd5b6001600160e01b031916630a85bd0160e11b1490506129a7565b5060016129a7565b60008072184f03e93ff9f4daa797ed6e38ed64bf6a1f0160401b8310613d9f5772184f03e93ff9f4daa797ed6e38ed64bf6a1f0160401b830492506040015b6d04ee2d6d415b85acef81000000008310613dcb576d04ee2d6d415b85acef8100000000830492506020015b662386f26fc100008310613de957662386f26fc10000830492506010015b6305f5e1008310613e01576305f5e100830492506008015b6127108310613e1557612710830492506004015b60648310613e27576064830492506002015b600a831061116b5760010192915050565b6001600160a01b038216613e8e5760405162461bcd60e51b815260206004820181905260248201527f4552433732313a206d696e7420746f20746865207a65726f20616464726573736044820152606401610f6b565b613e9781613600565b15613ee45760405162461bcd60e51b815260206004820152601c60248201527f4552433732313a20746f6b656e20616c7265616479206d696e746564000000006044820152606401610f6b565b613eed81613600565b15613f3a5760405162461bcd60e51b815260206004820152601c60248201527f4552433732313a20746f6b656e20616c7265616479206d696e746564000000006044820152606401610f6b565b6001600160a01b0382166000818152600e6020908152604080832080546001019055848352600d90915280822080546001600160a01b0319168417905551839291907fddf252ad1be2c89b69c2b068fc378daa952ba7f163c4a11628f55a4df523b3ef908290a45050565b6000602282511015613ff95760405162461bcd60e51b815260206004820152601c60248201527f4c7a4170703a20696e76616c69642061646170746572506172616d73000000006044820152606401610f6b565b506022015190565b61ffff82166000908152600360205260409020548061401f57506127105b808211156113da5760405162461bcd60e51b815260206004820181905260248201527f4c7a4170703a207061796c6f61642073697a6520697320746f6f206c617267656044820152606401610f6b565b82805461407b90615144565b90600052602060002090601f01602090048101928261409d57600085556140e3565b82601f106140b657805160ff19168380011785556140e3565b828001600101855582156140e3579182015b828111156140e35782518255916020019190600101906140c8565b506140ef929150614167565b5090565b8280546140ff90615144565b90600052602060002090601f01602090048101928261412157600085556140e3565b82601f1061413a5782800160ff198235161785556140e3565b828001600101855582156140e3579182015b828111156140e357823582559160200191906001019061414c565b5b808211156140ef5760008155600101614168565b600061418f61418a84615083565b615030565b90508281528383830111156141a357600080fd5b828260208301376000602084830101529392505050565b80356141c5816151c6565b919050565b600082601f8301126141da578081fd5b813560206141ea61418a83615060565b80838252828201915082860187848660051b8901011115614209578586fd5b855b858110156142275781358452928401929084019060010161420b565b5090979650505050505050565b803580151581146141c557600080fd5b60008083601f840112614255578182fd5b5081356001600160401b0381111561426b578182fd5b60208301915083602082850101111561165057600080fd5b600082601f830112614293578081fd5b6120188383356020850161417c565b600082601f8301126142b2578081fd5b81516142c061418a82615083565b8181528460208386010111156142d4578283fd5b6129a7826020830160208701615118565b803561ffff811681146141c557600080fd5b80356001600160401b03811681146141c557600080fd5b60006020828403121561431f578081fd5b8135612018816151c6565b6000806040838503121561433c578081fd5b8235614347816151c6565b91506020830135614357816151c6565b809150509250929050565b600080600060608486031215614376578081fd5b8335614381816151c6565b92506020840135614391816151c6565b929592945050506040919091013590565b600080600080608085870312156143b7578081fd5b84356143c2816151c6565b935060208501356143d2816151c6565b92506040850135915060608501356001600160401b038111156143f3578182fd5b6143ff87828801614283565b91505092959194509250565b6000806040838503121561441d578182fd5b8235614428816151c6565b915061443660208401614234565b90509250929050565b600080600080600080600060e0888a031215614459578485fd5b8735614464816151c6565b9650614472602089016142e5565b955060408801356001600160401b038082111561448d578687fd5b6144998b838c01614283565b965060608a01359150808211156144ae578485fd5b6144ba8b838c016141ca565b955060808a013591506144cc826151c6565b8194506144db60a08b016141ba565b935060c08a01359150808211156144f0578283fd5b506144fd8a828b01614283565b91505092959891949750929550565b600080600080600080600060e0888a031215614526578081fd5b8735614531816151c6565b965061453f602089016142e5565b955060408801356001600160401b038082111561455a578283fd5b6145668b838c01614283565b965060608a0135955060808a0135915061457f826151c6565b90935060a089013590614591826151c6565b90925060c089013590808211156144f0578283fd5b600080604083850312156145b8578182fd5b82356145c3816151c6565b946020939093013593505050565b600080604083850312156145e3578182fd5b82356145ee816151c6565b915060208301356001600160601b0381168114614357578182fd5b60006020828403121561461a578081fd5b61201882614234565b600060208284031215614634578081fd5b5035919050565b60006020828403121561464c578081fd5b8135612018816151db565b600060208284031215614668578081fd5b8151612018816151db565b600060208284031215614684578081fd5b81356001600160401b03811115614699578182fd5b6129a784828501614283565b6000602082840312156146b6578081fd5b81516001600160401b038111156146cb578182fd5b6129a7848285016142a2565b600080604083850312156146e9578182fd5b82516001600160401b03808211156146ff578384fd5b61470b868387016142a2565b9350602091508185015181811115614721578384fd5b85019050601f81018613614733578283fd5b805161474161418a82615060565b80828252848201915084840189868560051b8701011115614760578687fd5b8694505b83851015614782578051835260019490940193918501918501614764565b5080955050505050509250929050565b6000602082840312156147a3578081fd5b81356001600160401b038111156147b8578182fd5b8201601f810184136147c8578182fd5b6129a78482356020840161417c565b6000602082840312156147e8578081fd5b612018826142e5565b600080600060408486031215614805578081fd5b61480e846142e5565b925060208401356001600160401b03811115614828578182fd5b61483486828701614244565b9497909650939450505050565b60008060008060008060808789031215614859578384fd5b614862876142e5565b955060208701356001600160401b038082111561487d578586fd5b6148898a838b01614244565b909750955085915061489d60408a016142f7565b945060608901359150808211156148b2578384fd5b506148bf89828a01614244565b979a9699509497509295939492505050565b600080600080600060a086880312156148e8578283fd5b6148f1866142e5565b945060208601356001600160401b038082111561490c578485fd5b61491889838a01614283565b9550604088013591508082111561492d578485fd5b61493989838a016141ca565b945061494760608901614234565b9350608088013591508082111561495c578283fd5b5061496988828901614283565b9150509295509295909350565b600080600080600060a0868803121561498d578283fd5b614996866142e5565b945060208601356001600160401b03808211156149b1578485fd5b6149bd89838a01614283565b95506040880135945061494760608901614234565b6000806000606084860312156149e6578081fd5b6149ef846142e5565b925060208401356001600160401b03811115614a09578182fd5b614a1586828701614283565b925050614a24604085016142f7565b90509250925092565b60008060408385031215614a3f578182fd5b614a48836142e5565b9150614436602084016142e5565b60008060008060808587031215614a6b578182fd5b614a74856142e5565b9350614a82602086016142e5565b92506040850135614a92816151c6565b9396929550929360600135925050565b600080600060608486031215614ab6578081fd5b614abf846142e5565b9250614acd602085016142e5565b9150604084013590509250925092565b600080600080600060808688031215614af4578283fd5b614afd866142e5565b9450614b0b602087016142e5565b93506040860135925060608601356001600160401b03811115614b2c578182fd5b614b3888828901614244565b969995985093965092949392505050565b60008060408385031215614b5b578182fd5b6145c3836142e5565b60008060408385031215614b76578182fd5b50508035926020909101359150565b60008060408385031215614b97578182fd5b505080516020909101519092909150565b6000815180845260208085019450808401835b83811015614bd757815187529582019590820190600101614bbb565b509495945050505050565b81835281816020850137506000828201602090810191909152601f909101601f19169091010190565b60008151808452614c23816020860160208601615118565b601f01601f19169290920160200192915050565b8183823760009101908152919050565b8284823760609190911b6bffffffffffffffffffffffff19169101908152601401919050565b60008251614c7f818460208701615118565b9190910192915050565b60008351614c9b818460208801615118565b602f60f81b9083019081528351614cb9816001840160208801615118565b01600101949350505050565b6001600160a01b0385811682528416602082015260408101839052608060608201819052600090614cf890830184614c0b565b9695505050505050565b6020815260006120186020830184614ba8565b8281526040602082015260006129a76040830184614c0b565b6020815260006120186020830184614c0b565b604081526000614d546040830185614c0b565b8281036020840152614d668185614ba8565b95945050505050565b6020808252602d908201527f4552433732313a2063616c6c6572206973206e6f7420746f6b656e206f776e6560408201526c1c881bdc88185c1c1c9bdd9959609a1b606082015260800190565b60208082526032908201527f4552433732313a207472616e7366657220746f206e6f6e20455243373231526560408201527131b2b4bb32b91034b6b83632b6b2b73a32b960711b606082015260800190565b60208082526025908201527f4552433732313a207472616e736665722066726f6d20696e636f72726563742060408201526437bbb732b960d91b606082015260800190565b61ffff861681526001600160a01b038516602082015260a060408201819052600090614e8190830186614c0b565b84151560608401528281036080840152614e9b8185614c0b565b98975050505050505050565b61ffff841681526040602082015260006129a4604083018486614be2565b61ffff86168152608060208201526000614ee3608083018688614be2565b6001600160401b0394909416604083015250606001529392505050565b61ffff8716815260c060208201526000614f1d60c0830188614c0b565b8281036040840152614f2f8188614c0b565b6001600160a01b0387811660608601528616608085015283810360a08501529050614f5a8185614c0b565b9998505050505050505050565b61ffff85168152608060208201526000614f846080830186614c0b565b6001600160401b03851660408401528281036060840152614fa58185614c0b565b979650505050505050565b61ffff8616815260a060208201526000614fcd60a0830187614c0b565b6001600160401b03861660408401528281036060840152614fee8186614c0b565b90508281036080840152614e9b8185614c0b565b600061ffff808816835280871660208401525084604083015260806060830152614fa5608083018486614be2565b604051601f8201601f191681016001600160401b0381118282101715615058576150586151b0565b604052919050565b60006001600160401b03821115615079576150796151b0565b5060051b60200190565b60006001600160401b0382111561509c5761509c6151b0565b50601f01601f191660200190565b600082198211156150bd576150bd61519a565b500190565b6000826150dd57634e487b7160e01b81526012600452602481fd5b500490565b60008160001904831182151516156150fc576150fc61519a565b500290565b6000828210156151135761511361519a565b500390565b60005b8381101561513357818101518382015260200161511b565b838111156121195750506000910152565b600181811c9082168061515857607f821691505b6020821081141561517957634e487b7160e01b600052602260045260246000fd5b50919050565b60006000198214156151935761519361519a565b5060010190565b634e487b7160e01b600052601160045260246000fd5b634e487b7160e01b600052604160045260246000fd5b6001600160a01b038116811461176a57600080fd5b6001600160e01b03198116811461176a57600080fdfea26469706673582212206d761235c380c3e247fdcf841d67d7630f4c2295df972ebc3ff8aeda15cdc46d64736f6c63430008040033",
  "devdoc": {
    "kind": "dev",
    "methods": {
      "approve(address,uint256)": {
        "details": "See {IERC721-approve}."
      },
      "balanceOf(address)": {
        "details": "See {IERC721-balanceOf}."
      },
      "estimateSendBatchFee(uint16,bytes,uint256[],bool,bytes)": {
        "details": "estimate send token `_tokenId` to (`_dstChainId`, `_toAddress`) _dstChainId - L0 defined chain id to send tokens too _toAddress - dynamic bytes array which contains the address to whom you are sending tokens to on the dstChain _tokenIds[] - token Ids to transfer _useZro - indicates to use zro to pay L0 fees _adapterParams - flexible bytes array to indicate messaging adapter services in L0"
      },
      "estimateSendFee(uint16,bytes,uint256,bool,bytes)": {
        "details": "estimate send token `_tokenId` to (`_dstChainId`, `_toAddress`) _dstChainId - L0 defined chain id to send tokens too _toAddress - dynamic bytes array which contains the address to whom you are sending tokens to on the dstChain _tokenId - token Id to transfer _useZro - indicates to use zro to pay L0 fees _adapterParams - flexible bytes array to indicate messaging adapter services in L0"
      },
      "getApproved(uint256)": {
        "details": "See {IERC721-getApproved}."
      },
      "isApprovedForAll(address,address)": {
        "details": "See {IERC721-isApprovedForAll}."
      },
      "name()": {
        "details": "See {IERC721Metadata-name}."
      },
      "owner()": {
        "details": "Returns the address of the current owner."
      },
      "ownerOf(uint256)": {
        "details": "See {IERC721-ownerOf}."
      },
      "renounceOwnership()": {
        "details": "Leaves the contract without owner. It will not be possible to call `onlyOwner` functions. Can only be called by the current owner. NOTE: Renouncing ownership will leave the contract without an owner, thereby disabling any functionality that is only available to the owner."
      },
      "royaltyInfo(uint256,uint256)": {
        "details": "Returns how much royalty is owed and to whom, based on a sale price that may be denominated in any unit of exchange. The royalty amount is denominated and should be paid in that same unit of exchange."
      },
      "safeTransferFrom(address,address,uint256)": {
        "details": "See {IERC721-safeTransferFrom}."
      },
      "safeTransferFrom(address,address,uint256,bytes)": {
        "details": "See {IERC721-safeTransferFrom}."
      },
      "sendBatchFrom(address,uint16,bytes,uint256[],address,address,bytes)": {
        "details": "send tokens `_tokenIds[]` to (`_dstChainId`, `_toAddress`) from `_from` `_toAddress` can be any size depending on the `dstChainId`. `_zroPaymentAddress` set to address(0x0) if not paying in ZRO (LayerZero Token) `_adapterParams` is a flexible bytes array to indicate messaging adapter services"
      },
      "sendFrom(address,uint16,bytes,uint256,address,address,bytes)": {
        "details": "send token `_tokenId` to (`_dstChainId`, `_toAddress`) from `_from` `_toAddress` can be any size depending on the `dstChainId`. `_zroPaymentAddress` set to address(0x0) if not paying in ZRO (LayerZero Token) `_adapterParams` is a flexible bytes array to indicate messaging adapter services"
      },
      "setApprovalForAll(address,bool)": {
        "details": "See {IERC721-setApprovalForAll}."
      },
      "symbol()": {
        "details": "See {IERC721Metadata-symbol}."
      },
      "tokenURI(uint256)": {
        "details": "See {IERC721Metadata-tokenURI}."
      },
      "transferFrom(address,address,uint256)": {
        "details": "See {IERC721-transferFrom}."
      },
      "transferOwnership(address)": {
        "details": "Transfers ownership of the contract to a new account (`newOwner`). Can only be called by the current owner."
      }
    },
    "version": 1
  },
  "userdoc": {
    "kind": "user",
    "methods": {},
    "version": 1
  },
  "storageLayout": {
    "storage": [
      {
        "astId": 2522,
        "contract": "contracts/DecaNFT.sol:DecaNFT",
        "label": "_owner",
        "offset": 0,
        "slot": "0",
        "type": "t_address"
      },
      {
        "astId": 455,
        "contract": "contracts/DecaNFT.sol:DecaNFT",
        "label": "trustedRemoteLookup",
        "offset": 0,
        "slot": "1",
        "type": "t_mapping(t_uint16,t_bytes_storage)"
      },
      {
        "astId": 461,
        "contract": "contracts/DecaNFT.sol:DecaNFT",
        "label": "minDstGasLookup",
        "offset": 0,
        "slot": "2",
        "type": "t_mapping(t_uint16,t_mapping(t_uint16,t_uint256))"
      },
      {
        "astId": 465,
        "contract": "contracts/DecaNFT.sol:DecaNFT",
        "label": "payloadSizeLimitLookup",
        "offset": 0,
        "slot": "3",
        "type": "t_mapping(t_uint16,t_uint256)"
      },
      {
        "astId": 467,
        "contract": "contracts/DecaNFT.sol:DecaNFT",
        "label": "precrime",
        "offset": 0,
        "slot": "4",
        "type": "t_address"
      },
      {
        "astId": 997,
        "contract": "contracts/DecaNFT.sol:DecaNFT",
        "label": "failedMessages",
        "offset": 0,
        "slot": "5",
        "type": "t_mapping(t_uint16,t_mapping(t_bytes_memory_ptr,t_mapping(t_uint64,t_bytes32)))"
      },
      {
        "astId": 2657,
        "contract": "contracts/DecaNFT.sol:DecaNFT",
        "label": "_status",
        "offset": 0,
        "slot": "6",
        "type": "t_uint256"
      },
      {
        "astId": 1581,
        "contract": "contracts/DecaNFT.sol:DecaNFT",
        "label": "minGasToTransferAndStore",
        "offset": 0,
        "slot": "7",
        "type": "t_uint256"
      },
      {
        "astId": 1585,
        "contract": "contracts/DecaNFT.sol:DecaNFT",
        "label": "dstChainIdToBatchLimit",
        "offset": 0,
        "slot": "8",
        "type": "t_mapping(t_uint16,t_uint256)"
      },
      {
        "astId": 1589,
        "contract": "contracts/DecaNFT.sol:DecaNFT",
        "label": "dstChainIdToTransferGas",
        "offset": 0,
        "slot": "9",
        "type": "t_mapping(t_uint16,t_uint256)"
      },
      {
        "astId": 1594,
        "contract": "contracts/DecaNFT.sol:DecaNFT",
        "label": "storedCredits",
        "offset": 0,
        "slot": "10",
        "type": "t_mapping(t_bytes32,t_struct(StoredCredit)1579_storage)"
      },
      {
        "astId": 2737,
        "contract": "contracts/DecaNFT.sol:DecaNFT",
        "label": "_name",
        "offset": 0,
        "slot": "11",
        "type": "t_string_storage"
      },
      {
        "astId": 2739,
        "contract": "contracts/DecaNFT.sol:DecaNFT",
        "label": "_symbol",
        "offset": 0,
        "slot": "12",
        "type": "t_string_storage"
      },
      {
        "astId": 2743,
        "contract": "contracts/DecaNFT.sol:DecaNFT",
        "label": "_owners",
        "offset": 0,
        "slot": "13",
        "type": "t_mapping(t_uint256,t_address)"
      },
      {
        "astId": 2747,
        "contract": "contracts/DecaNFT.sol:DecaNFT",
        "label": "_balances",
        "offset": 0,
        "slot": "14",
        "type": "t_mapping(t_address,t_uint256)"
      },
      {
        "astId": 2751,
        "contract": "contracts/DecaNFT.sol:DecaNFT",
        "label": "_tokenApprovals",
        "offset": 0,
        "slot": "15",
        "type": "t_mapping(t_uint256,t_address)"
      },
      {
        "astId": 2757,
        "contract": "contracts/DecaNFT.sol:DecaNFT",
        "label": "_operatorApprovals",
        "offset": 0,
        "slot": "16",
        "type": "t_mapping(t_address,t_mapping(t_address,t_bool))"
      },
      {
        "astId": 3816,
        "contract": "contracts/DecaNFT.sol:DecaNFT",
        "label": "_defaultRoyaltyInfo",
        "offset": 0,
        "slot": "17",
        "type": "t_struct(RoyaltyInfo)3813_storage"
      },
      {
        "astId": 3821,
        "contract": "contracts/DecaNFT.sol:DecaNFT",
        "label": "_tokenRoyaltyInfo",
        "offset": 0,
        "slot": "18",
        "type": "t_mapping(t_uint256,t_struct(RoyaltyInfo)3813_storage)"
      },
      {
        "astId": 5814,
        "contract": "contracts/DecaNFT.sol:DecaNFT",
        "label": "baseTokenURI",
        "offset": 0,
        "slot": "19",
        "type": "t_string_storage"
      },
      {
        "astId": 5816,
        "contract": "contracts/DecaNFT.sol:DecaNFT",
        "label": "prerevealTokenURI",
        "offset": 0,
        "slot": "20",
        "type": "t_string_storage"
      },
      {
        "astId": 5818,
        "contract": "contracts/DecaNFT.sol:DecaNFT",
        "label": "revealed",
        "offset": 0,
        "slot": "21",
        "type": "t_bool"
      },
      {
        "astId": 5820,
        "contract": "contracts/DecaNFT.sol:DecaNFT",
        "label": "whiteListingPeriod",
        "offset": 1,
        "slot": "21",
        "type": "t_bool"
      },
      {
        "astId": 5822,
        "contract": "contracts/DecaNFT.sol:DecaNFT",
        "label": "mintState",
        "offset": 2,
        "slot": "21",
        "type": "t_bool"
      },
      {
        "astId": 5824,
        "contract": "contracts/DecaNFT.sol:DecaNFT",
        "label": "mintLimit",
        "offset": 0,
        "slot": "22",
        "type": "t_uint256"
      },
      {
        "astId": 5826,
        "contract": "contracts/DecaNFT.sol:DecaNFT",
        "label": "totalSupply",
        "offset": 0,
        "slot": "23",
        "type": "t_uint256"
      },
      {
        "astId": 5832,
        "contract": "contracts/DecaNFT.sol:DecaNFT",
        "label": "treasuryMintedCount",
        "offset": 0,
        "slot": "24",
        "type": "t_uint256"
      },
      {
        "astId": 5837,
        "contract": "contracts/DecaNFT.sol:DecaNFT",
        "label": "treasuryAddress",
        "offset": 0,
        "slot": "25",
        "type": "t_address"
      },
      {
        "astId": 5841,
        "contract": "contracts/DecaNFT.sol:DecaNFT",
        "label": "minters",
        "offset": 0,
        "slot": "26",
        "type": "t_mapping(t_address,t_bool)"
      }
    ],
    "types": {
      "t_address": {
        "encoding": "inplace",
        "label": "address",
        "numberOfBytes": "20"
      },
      "t_bool": {
        "encoding": "inplace",
        "label": "bool",
        "numberOfBytes": "1"
      },
      "t_bytes32": {
        "encoding": "inplace",
        "label": "bytes32",
        "numberOfBytes": "32"
      },
      "t_bytes_memory_ptr": {
        "encoding": "bytes",
        "label": "bytes",
        "numberOfBytes": "32"
      },
      "t_bytes_storage": {
        "encoding": "bytes",
        "label": "bytes",
        "numberOfBytes": "32"
      },
      "t_mapping(t_address,t_bool)": {
        "encoding": "mapping",
        "key": "t_address",
        "label": "mapping(address => bool)",
        "numberOfBytes": "32",
        "value": "t_bool"
      },
      "t_mapping(t_address,t_mapping(t_address,t_bool))": {
        "encoding": "mapping",
        "key": "t_address",
        "label": "mapping(address => mapping(address => bool))",
        "numberOfBytes": "32",
        "value": "t_mapping(t_address,t_bool)"
      },
      "t_mapping(t_address,t_uint256)": {
        "encoding": "mapping",
        "key": "t_address",
        "label": "mapping(address => uint256)",
        "numberOfBytes": "32",
        "value": "t_uint256"
      },
      "t_mapping(t_bytes32,t_struct(StoredCredit)1579_storage)": {
        "encoding": "mapping",
        "key": "t_bytes32",
        "label": "mapping(bytes32 => struct ONFT721Core.StoredCredit)",
        "numberOfBytes": "32",
        "value": "t_struct(StoredCredit)1579_storage"
      },
      "t_mapping(t_bytes_memory_ptr,t_mapping(t_uint64,t_bytes32))": {
        "encoding": "mapping",
        "key": "t_bytes_memory_ptr",
        "label": "mapping(bytes => mapping(uint64 => bytes32))",
        "numberOfBytes": "32",
        "value": "t_mapping(t_uint64,t_bytes32)"
      },
      "t_mapping(t_uint16,t_bytes_storage)": {
        "encoding": "mapping",
        "key": "t_uint16",
        "label": "mapping(uint16 => bytes)",
        "numberOfBytes": "32",
        "value": "t_bytes_storage"
      },
      "t_mapping(t_uint16,t_mapping(t_bytes_memory_ptr,t_mapping(t_uint64,t_bytes32)))": {
        "encoding": "mapping",
        "key": "t_uint16",
        "label": "mapping(uint16 => mapping(bytes => mapping(uint64 => bytes32)))",
        "numberOfBytes": "32",
        "value": "t_mapping(t_bytes_memory_ptr,t_mapping(t_uint64,t_bytes32))"
      },
      "t_mapping(t_uint16,t_mapping(t_uint16,t_uint256))": {
        "encoding": "mapping",
        "key": "t_uint16",
        "label": "mapping(uint16 => mapping(uint16 => uint256))",
        "numberOfBytes": "32",
        "value": "t_mapping(t_uint16,t_uint256)"
      },
      "t_mapping(t_uint16,t_uint256)": {
        "encoding": "mapping",
        "key": "t_uint16",
        "label": "mapping(uint16 => uint256)",
        "numberOfBytes": "32",
        "value": "t_uint256"
      },
      "t_mapping(t_uint256,t_address)": {
        "encoding": "mapping",
        "key": "t_uint256",
        "label": "mapping(uint256 => address)",
        "numberOfBytes": "32",
        "value": "t_address"
      },
      "t_mapping(t_uint256,t_struct(RoyaltyInfo)3813_storage)": {
        "encoding": "mapping",
        "key": "t_uint256",
        "label": "mapping(uint256 => struct ERC2981.RoyaltyInfo)",
        "numberOfBytes": "32",
        "value": "t_struct(RoyaltyInfo)3813_storage"
      },
      "t_mapping(t_uint64,t_bytes32)": {
        "encoding": "mapping",
        "key": "t_uint64",
        "label": "mapping(uint64 => bytes32)",
        "numberOfBytes": "32",
        "value": "t_bytes32"
      },
      "t_string_storage": {
        "encoding": "bytes",
        "label": "string",
        "numberOfBytes": "32"
      },
      "t_struct(RoyaltyInfo)3813_storage": {
        "encoding": "inplace",
        "label": "struct ERC2981.RoyaltyInfo",
        "members": [
          {
            "astId": 3810,
            "contract": "contracts/DecaNFT.sol:DecaNFT",
            "label": "receiver",
            "offset": 0,
            "slot": "0",
            "type": "t_address"
          },
          {
            "astId": 3812,
            "contract": "contracts/DecaNFT.sol:DecaNFT",
            "label": "royaltyFraction",
            "offset": 20,
            "slot": "0",
            "type": "t_uint96"
          }
        ],
        "numberOfBytes": "32"
      },
      "t_struct(StoredCredit)1579_storage": {
        "encoding": "inplace",
        "label": "struct ONFT721Core.StoredCredit",
        "members": [
          {
            "astId": 1572,
            "contract": "contracts/DecaNFT.sol:DecaNFT",
            "label": "srcChainId",
            "offset": 0,
            "slot": "0",
            "type": "t_uint16"
          },
          {
            "astId": 1574,
            "contract": "contracts/DecaNFT.sol:DecaNFT",
            "label": "toAddress",
            "offset": 2,
            "slot": "0",
            "type": "t_address"
          },
          {
            "astId": 1576,
            "contract": "contracts/DecaNFT.sol:DecaNFT",
            "label": "index",
            "offset": 0,
            "slot": "1",
            "type": "t_uint256"
          },
          {
            "astId": 1578,
            "contract": "contracts/DecaNFT.sol:DecaNFT",
            "label": "creditsRemain",
            "offset": 0,
            "slot": "2",
            "type": "t_bool"
          }
        ],
        "numberOfBytes": "96"
      },
      "t_uint16": {
        "encoding": "inplace",
        "label": "uint16",
        "numberOfBytes": "2"
      },
      "t_uint256": {
        "encoding": "inplace",
        "label": "uint256",
        "numberOfBytes": "32"
      },
      "t_uint64": {
        "encoding": "inplace",
        "label": "uint64",
        "numberOfBytes": "8"
      },
      "t_uint96": {
        "encoding": "inplace",
        "label": "uint96",
        "numberOfBytes": "12"
      }
    }
  }
}